{
  "contractName": "CNHCToken",
  "abi": [
    {
      "inputs": [
        {
          "internalType": "uint256",
          "name": "_initialSupply",
          "type": "uint256"
        },
        {
          "internalType": "uint8",
          "name": "_decimals",
          "type": "uint8"
        }
      ],
      "stateMutability": "nonpayable",
      "type": "constructor"
    },
    {
      "anonymous": false,
      "inputs": [
        {
          "indexed": false,
          "internalType": "address",
          "name": "voter",
          "type": "address"
        }
      ],
      "name": "AddVoter",
      "type": "event"
    },
    {
      "anonymous": false,
      "inputs": [
        {
          "indexed": false,
          "internalType": "address",
          "name": "_user",
          "type": "address"
        }
      ],
      "name": "AddedBlackList",
      "type": "event"
    },
    {
      "anonymous": false,
      "inputs": [
        {
          "indexed": true,
          "internalType": "address",
          "name": "owner",
          "type": "address"
        },
        {
          "indexed": true,
          "internalType": "address",
          "name": "spender",
          "type": "address"
        },
        {
          "indexed": false,
          "internalType": "uint256",
          "name": "value",
          "type": "uint256"
        }
      ],
      "name": "Approval",
      "type": "event"
    },
    {
      "anonymous": false,
      "inputs": [
        {
          "indexed": false,
          "internalType": "uint16",
          "name": "pid",
          "type": "uint16"
        }
      ],
      "name": "CloseProposal",
      "type": "event"
    },
    {
      "anonymous": false,
      "inputs": [
        {
          "indexed": false,
          "internalType": "address",
          "name": "newAddress",
          "type": "address"
        }
      ],
      "name": "Deprecate",
      "type": "event"
    },
    {
      "anonymous": false,
      "inputs": [
        {
          "indexed": true,
          "internalType": "address",
          "name": "blackListedUser",
          "type": "address"
        },
        {
          "indexed": false,
          "internalType": "uint256",
          "name": "balance",
          "type": "uint256"
        }
      ],
      "name": "DestroyedBlackFunds",
      "type": "event"
    },
    {
      "anonymous": false,
      "inputs": [
        {
          "indexed": false,
          "internalType": "uint16",
          "name": "pid",
          "type": "uint16"
        }
      ],
      "name": "DoneProposal",
      "type": "event"
    },
    {
      "anonymous": false,
      "inputs": [
        {
          "indexed": false,
          "internalType": "uint16",
          "name": "pid",
          "type": "uint16"
        }
      ],
      "name": "OpenProposal",
      "type": "event"
    },
    {
      "anonymous": false,
      "inputs": [
        {
          "indexed": true,
          "internalType": "address",
          "name": "previousOwner",
          "type": "address"
        },
        {
          "indexed": true,
          "internalType": "address",
          "name": "newOwner",
          "type": "address"
        }
      ],
      "name": "OwnershipTransferred",
      "type": "event"
    },
    {
      "anonymous": false,
      "inputs": [
        {
          "indexed": false,
          "internalType": "address",
          "name": "account",
          "type": "address"
        }
      ],
      "name": "Paused",
      "type": "event"
    },
    {
      "anonymous": false,
      "inputs": [
        {
          "indexed": false,
          "internalType": "address",
          "name": "voter",
          "type": "address"
        }
      ],
      "name": "RemoveVoter",
      "type": "event"
    },
    {
      "anonymous": false,
      "inputs": [
        {
          "indexed": false,
          "internalType": "address",
          "name": "_user",
          "type": "address"
        }
      ],
      "name": "RemovedBlackList",
      "type": "event"
    },
    {
      "anonymous": false,
      "inputs": [
        {
          "indexed": true,
          "internalType": "address",
          "name": "from",
          "type": "address"
        },
        {
          "indexed": true,
          "internalType": "address",
          "name": "to",
          "type": "address"
        },
        {
          "indexed": false,
          "internalType": "uint256",
          "name": "value",
          "type": "uint256"
        }
      ],
      "name": "Transfer",
      "type": "event"
    },
    {
      "anonymous": false,
      "inputs": [
        {
          "indexed": false,
          "internalType": "address",
          "name": "account",
          "type": "address"
        }
      ],
      "name": "Unpaused",
      "type": "event"
    },
    {
      "anonymous": false,
      "inputs": [
        {
          "indexed": false,
          "internalType": "uint16",
          "name": "pid",
          "type": "uint16"
        },
        {
          "indexed": false,
          "internalType": "address",
          "name": "voter",
          "type": "address"
        }
      ],
      "name": "VoteProposal",
      "type": "event"
    },
    {
      "inputs": [
        {
          "internalType": "address",
          "name": "_user",
          "type": "address"
        }
      ],
      "name": "addBlackList",
      "outputs": [],
      "stateMutability": "nonpayable",
      "type": "function"
    },
    {
      "inputs": [
        {
          "internalType": "address",
          "name": "_router",
          "type": "address"
        }
      ],
      "name": "addRouter",
      "outputs": [],
      "stateMutability": "nonpayable",
      "type": "function"
    },
    {
      "inputs": [
        {
          "internalType": "address",
          "name": "_voter",
          "type": "address"
        }
      ],
      "name": "addVoter",
      "outputs": [],
      "stateMutability": "nonpayable",
      "type": "function"
    },
    {
      "inputs": [],
      "name": "basisPointsRate",
      "outputs": [
        {
          "internalType": "uint256",
          "name": "",
          "type": "uint256"
        }
      ],
      "stateMutability": "view",
      "type": "function",
      "constant": true
    },
    {
      "inputs": [
        {
          "internalType": "address",
          "name": "",
          "type": "address"
        }
      ],
      "name": "blackList",
      "outputs": [
        {
          "internalType": "bool",
          "name": "",
          "type": "bool"
        }
      ],
      "stateMutability": "view",
      "type": "function",
      "constant": true
    },
    {
      "inputs": [
        {
          "internalType": "uint16",
          "name": "_pid",
          "type": "uint16"
        }
      ],
      "name": "closeProposal",
      "outputs": [],
      "stateMutability": "nonpayable",
      "type": "function"
    },
    {
      "inputs": [],
      "name": "decimals",
      "outputs": [
        {
          "internalType": "uint8",
          "name": "",
          "type": "uint8"
        }
      ],
      "stateMutability": "view",
      "type": "function",
      "constant": true
    },
    {
      "inputs": [],
      "name": "deprecated",
      "outputs": [
        {
          "internalType": "bool",
          "name": "",
          "type": "bool"
        }
      ],
      "stateMutability": "view",
      "type": "function",
      "constant": true
    },
    {
      "inputs": [
        {
          "internalType": "address",
          "name": "_from",
          "type": "address"
        },
        {
          "internalType": "address",
          "name": "_to",
          "type": "address"
        },
        {
          "internalType": "uint256",
          "name": "_value",
          "type": "uint256"
        }
      ],
      "name": "getSha3Result",
      "outputs": [
        {
          "internalType": "bytes32",
          "name": "",
          "type": "bytes32"
        }
      ],
      "stateMutability": "view",
      "type": "function",
      "constant": true
    },
    {
      "inputs": [
        {
          "internalType": "address",
          "name": "_from",
          "type": "address"
        },
        {
          "internalType": "address",
          "name": "_to",
          "type": "address"
        },
        {
          "internalType": "uint256",
          "name": "_value",
          "type": "uint256"
        },
        {
          "internalType": "bytes32",
          "name": "_r",
          "type": "bytes32"
        },
        {
          "internalType": "bytes32",
          "name": "_s",
          "type": "bytes32"
        },
        {
          "internalType": "uint8",
          "name": "_v",
          "type": "uint8"
        }
      ],
      "name": "getVerifySignatureResult",
      "outputs": [
        {
          "internalType": "address",
          "name": "",
          "type": "address"
        }
      ],
      "stateMutability": "view",
      "type": "function",
      "constant": true
    },
    {
      "inputs": [
        {
          "internalType": "uint16",
          "name": "_pid",
          "type": "uint16"
        }
      ],
      "name": "hasVoted",
      "outputs": [
        {
          "internalType": "bool",
          "name": "",
          "type": "bool"
        }
      ],
      "stateMutability": "view",
      "type": "function",
      "constant": true
    },
    {
      "inputs": [
        {
          "internalType": "address",
          "name": "_user",
          "type": "address"
        }
      ],
      "name": "isBlackListUser",
      "outputs": [
        {
          "internalType": "bool",
          "name": "",
          "type": "bool"
        }
      ],
      "stateMutability": "view",
      "type": "function",
      "constant": true
    },
    {
      "inputs": [
        {
          "internalType": "address",
          "name": "_router",
          "type": "address"
        }
      ],
      "name": "isRouter",
      "outputs": [
        {
          "internalType": "bool",
          "name": "",
          "type": "bool"
        }
      ],
      "stateMutability": "view",
      "type": "function",
      "constant": true
    },
    {
      "inputs": [],
      "name": "maximumFee",
      "outputs": [
        {
          "internalType": "uint256",
          "name": "",
          "type": "uint256"
        }
      ],
      "stateMutability": "view",
      "type": "function",
      "constant": true
    },
    {
      "inputs": [],
      "name": "name",
      "outputs": [
        {
          "internalType": "string",
          "name": "",
          "type": "string"
        }
      ],
      "stateMutability": "view",
      "type": "function",
      "constant": true
    },
    {
      "inputs": [],
      "name": "nextPid",
      "outputs": [
        {
          "internalType": "uint16",
          "name": "",
          "type": "uint16"
        }
      ],
      "stateMutability": "view",
      "type": "function",
      "constant": true
    },
    {
      "inputs": [
        {
          "internalType": "address",
          "name": "_voter",
          "type": "address"
        }
      ],
      "name": "openAddVoterProposal",
      "outputs": [],
      "stateMutability": "nonpayable",
      "type": "function"
    },
    {
      "inputs": [
        {
          "internalType": "address",
          "name": "_voter",
          "type": "address"
        }
      ],
      "name": "openRemoveVoterProposal",
      "outputs": [],
      "stateMutability": "nonpayable",
      "type": "function"
    },
    {
      "inputs": [],
      "name": "owner",
      "outputs": [
        {
          "internalType": "address",
          "name": "",
          "type": "address"
        }
      ],
      "stateMutability": "view",
      "type": "function",
      "constant": true
    },
    {
      "inputs": [],
      "name": "paused",
      "outputs": [
        {
          "internalType": "bool",
          "name": "",
          "type": "bool"
        }
      ],
      "stateMutability": "view",
      "type": "function",
      "constant": true
    },
    {
      "inputs": [],
      "name": "prefix",
      "outputs": [
        {
          "internalType": "string",
          "name": "",
          "type": "string"
        }
      ],
      "stateMutability": "view",
      "type": "function",
      "constant": true
    },
    {
      "inputs": [
        {
          "internalType": "uint16",
          "name": "",
          "type": "uint16"
        }
      ],
      "name": "proposals",
      "outputs": [
        {
          "internalType": "uint16",
          "name": "pid",
          "type": "uint16"
        },
        {
          "internalType": "uint16",
          "name": "count",
          "type": "uint16"
        },
        {
          "internalType": "bool",
          "name": "done",
          "type": "bool"
        },
        {
          "internalType": "bytes",
          "name": "payload",
          "type": "bytes"
        }
      ],
      "stateMutability": "view",
      "type": "function",
      "constant": true
    },
    {
      "inputs": [],
      "name": "receivingFeeAddress",
      "outputs": [
        {
          "internalType": "address",
          "name": "",
          "type": "address"
        }
      ],
      "stateMutability": "view",
      "type": "function",
      "constant": true
    },
    {
      "inputs": [
        {
          "internalType": "address",
          "name": "_user",
          "type": "address"
        }
      ],
      "name": "removeBlackList",
      "outputs": [],
      "stateMutability": "nonpayable",
      "type": "function"
    },
    {
      "inputs": [
        {
          "internalType": "address",
          "name": "_router",
          "type": "address"
        }
      ],
      "name": "removeRouter",
      "outputs": [],
      "stateMutability": "nonpayable",
      "type": "function"
    },
    {
      "inputs": [
        {
          "internalType": "address",
          "name": "_voter",
          "type": "address"
        }
      ],
      "name": "removeVoter",
      "outputs": [],
      "stateMutability": "nonpayable",
      "type": "function"
    },
    {
      "inputs": [],
      "name": "renounceOwnership",
      "outputs": [],
      "stateMutability": "nonpayable",
      "type": "function"
    },
    {
      "inputs": [],
      "name": "routerFee",
      "outputs": [
        {
          "internalType": "uint256",
          "name": "",
          "type": "uint256"
        }
      ],
      "stateMutability": "view",
      "type": "function",
      "constant": true
    },
    {
      "inputs": [
        {
          "internalType": "uint256",
          "name": "newBasisPoints",
          "type": "uint256"
        },
        {
          "internalType": "uint256",
          "name": "newMaxFee",
          "type": "uint256"
        }
      ],
      "name": "setFeeParams",
      "outputs": [],
      "stateMutability": "nonpayable",
      "type": "function"
    },
    {
      "inputs": [
        {
          "internalType": "uint256",
          "name": "newRouterFee",
          "type": "uint256"
        }
      ],
      "name": "setRouterFee",
      "outputs": [],
      "stateMutability": "nonpayable",
      "type": "function"
    },
    {
      "inputs": [],
      "name": "symbol",
      "outputs": [
        {
          "internalType": "string",
          "name": "",
          "type": "string"
        }
      ],
      "stateMutability": "view",
      "type": "function",
      "constant": true
    },
    {
      "inputs": [
        {
          "internalType": "address",
          "name": "_to",
          "type": "address"
        },
        {
          "internalType": "uint256",
          "name": "_value",
          "type": "uint256"
        }
      ],
      "name": "transferByBatchEach",
      "outputs": [],
      "stateMutability": "nonpayable",
      "type": "function"
    },
    {
      "inputs": [
        {
          "internalType": "address",
          "name": "_from",
          "type": "address"
        },
        {
          "internalType": "address",
          "name": "_to",
          "type": "address"
        },
        {
          "internalType": "uint256",
          "name": "_value",
          "type": "uint256"
        }
      ],
      "name": "transferFromByBatchEach",
      "outputs": [],
      "stateMutability": "nonpayable",
      "type": "function"
    },
    {
      "inputs": [
        {
          "internalType": "address",
          "name": "_from",
          "type": "address"
        },
        {
          "internalType": "address",
          "name": "_to",
          "type": "address"
        },
        {
          "internalType": "uint256",
          "name": "_value",
          "type": "uint256"
        },
        {
          "internalType": "bytes32",
          "name": "_r",
          "type": "bytes32"
        },
        {
          "internalType": "bytes32",
          "name": "_s",
          "type": "bytes32"
        },
        {
          "internalType": "uint8",
          "name": "_v",
          "type": "uint8"
        }
      ],
      "name": "transferFromByRouterEach",
      "outputs": [],
      "stateMutability": "nonpayable",
      "type": "function"
    },
    {
      "inputs": [
        {
          "internalType": "address",
          "name": "newOwner",
          "type": "address"
        }
      ],
      "name": "transferOwnership",
      "outputs": [],
      "stateMutability": "nonpayable",
      "type": "function"
    },
    {
      "inputs": [
        {
          "internalType": "address",
          "name": "_receivingFeeAddress",
          "type": "address"
        }
      ],
      "name": "updateReceivingFeeAddress",
      "outputs": [],
      "stateMutability": "nonpayable",
      "type": "function"
    },
    {
      "inputs": [],
      "name": "upgradedAddress",
      "outputs": [
        {
          "internalType": "address",
          "name": "",
          "type": "address"
        }
      ],
      "stateMutability": "view",
      "type": "function",
      "constant": true
    },
    {
      "inputs": [
        {
          "internalType": "uint16",
          "name": "_pid",
          "type": "uint16"
        }
      ],
      "name": "voteProposal",
      "outputs": [],
      "stateMutability": "nonpayable",
      "type": "function"
    },
    {
      "inputs": [
        {
          "internalType": "address",
          "name": "",
          "type": "address"
        }
      ],
      "name": "voters",
      "outputs": [
        {
          "internalType": "bool",
          "name": "",
          "type": "bool"
        }
      ],
      "stateMutability": "view",
      "type": "function",
      "constant": true
    },
    {
      "inputs": [],
      "name": "votersCount",
      "outputs": [
        {
          "internalType": "uint16",
          "name": "",
          "type": "uint16"
        }
      ],
      "stateMutability": "view",
      "type": "function",
      "constant": true
    },
    {
      "inputs": [
        {
          "internalType": "address",
          "name": "account",
          "type": "address"
        }
      ],
      "name": "balanceOf",
      "outputs": [
        {
          "internalType": "uint256",
          "name": "",
          "type": "uint256"
        }
      ],
      "stateMutability": "view",
      "type": "function",
      "constant": true
    },
    {
      "inputs": [],
      "name": "totalSupply",
      "outputs": [
        {
          "internalType": "uint256",
          "name": "",
          "type": "uint256"
        }
      ],
      "stateMutability": "view",
      "type": "function",
      "constant": true
    },
    {
      "inputs": [
        {
          "internalType": "address",
          "name": "owner",
          "type": "address"
        },
        {
          "internalType": "address",
          "name": "spender",
          "type": "address"
        }
      ],
      "name": "allowance",
      "outputs": [
        {
          "internalType": "uint256",
          "name": "remaining",
          "type": "uint256"
        }
      ],
      "stateMutability": "view",
      "type": "function",
      "constant": true
    },
    {
      "inputs": [
        {
          "internalType": "address",
          "name": "account",
          "type": "address"
        }
      ],
      "name": "oldBalanceOf",
      "outputs": [
        {
          "internalType": "uint256",
          "name": "",
          "type": "uint256"
        }
      ],
      "stateMutability": "view",
      "type": "function",
      "constant": true
    },
    {
      "inputs": [
        {
          "internalType": "address",
          "name": "recipient",
          "type": "address"
        },
        {
          "internalType": "uint256",
          "name": "amount",
          "type": "uint256"
        }
      ],
      "name": "transfer",
      "outputs": [
        {
          "internalType": "bool",
          "name": "",
          "type": "bool"
        }
      ],
      "stateMutability": "nonpayable",
      "type": "function"
    },
    {
      "inputs": [
        {
          "internalType": "address",
          "name": "sender",
          "type": "address"
        },
        {
          "internalType": "address",
          "name": "recipient",
          "type": "address"
        },
        {
          "internalType": "uint256",
          "name": "amount",
          "type": "uint256"
        }
      ],
      "name": "transferFrom",
      "outputs": [
        {
          "internalType": "bool",
          "name": "",
          "type": "bool"
        }
      ],
      "stateMutability": "nonpayable",
      "type": "function"
    },
    {
      "inputs": [
        {
          "internalType": "address",
          "name": "spender",
          "type": "address"
        },
        {
          "internalType": "uint256",
          "name": "amount",
          "type": "uint256"
        }
      ],
      "name": "approve",
      "outputs": [
        {
          "internalType": "bool",
          "name": "",
          "type": "bool"
        }
      ],
      "stateMutability": "nonpayable",
      "type": "function"
    },
    {
      "inputs": [
        {
          "internalType": "address",
          "name": "spender",
          "type": "address"
        },
        {
          "internalType": "uint256",
          "name": "addedValue",
          "type": "uint256"
        }
      ],
      "name": "increaseAllowance",
      "outputs": [
        {
          "internalType": "bool",
          "name": "",
          "type": "bool"
        }
      ],
      "stateMutability": "nonpayable",
      "type": "function"
    },
    {
      "inputs": [
        {
          "internalType": "address",
          "name": "spender",
          "type": "address"
        },
        {
          "internalType": "uint256",
          "name": "subtractedValue",
          "type": "uint256"
        }
      ],
      "name": "decreaseAllowance",
      "outputs": [
        {
          "internalType": "bool",
          "name": "",
          "type": "bool"
        }
      ],
      "stateMutability": "nonpayable",
      "type": "function"
    },
    {
      "inputs": [
        {
          "internalType": "uint256",
          "name": "amount",
          "type": "uint256"
        }
      ],
      "name": "burn",
      "outputs": [],
      "stateMutability": "nonpayable",
      "type": "function"
    },
    {
      "inputs": [
        {
          "internalType": "address",
          "name": "_account",
          "type": "address"
        },
        {
          "internalType": "uint256",
          "name": "_amount",
          "type": "uint256"
        }
      ],
      "name": "openMintProposal",
      "outputs": [],
      "stateMutability": "nonpayable",
      "type": "function"
    },
    {
      "inputs": [
        {
          "internalType": "address",
          "name": "_user",
          "type": "address"
        }
      ],
      "name": "openDestroyBlackFundsProposal",
      "outputs": [],
      "stateMutability": "nonpayable",
      "type": "function"
    },
    {
      "inputs": [
        {
          "internalType": "address",
          "name": "_account",
          "type": "address"
        },
        {
          "internalType": "uint256",
          "name": "_amount",
          "type": "uint256"
        }
      ],
      "name": "mint",
      "outputs": [],
      "stateMutability": "nonpayable",
      "type": "function"
    },
    {
      "inputs": [
        {
          "internalType": "address",
          "name": "_user",
          "type": "address"
        }
      ],
      "name": "destroyBlackFunds",
      "outputs": [],
      "stateMutability": "nonpayable",
      "type": "function"
    },
    {
      "inputs": [],
      "name": "pause",
      "outputs": [],
      "stateMutability": "nonpayable",
      "type": "function"
    },
    {
      "inputs": [],
      "name": "unpause",
      "outputs": [],
      "stateMutability": "nonpayable",
      "type": "function"
    },
    {
      "inputs": [
        {
          "internalType": "address",
          "name": "_upgradedAddress",
          "type": "address"
        }
      ],
      "name": "deprecate",
      "outputs": [],
      "stateMutability": "nonpayable",
      "type": "function"
    },
    {
      "inputs": [
        {
          "internalType": "address[]",
          "name": "_recipients",
          "type": "address[]"
        },
        {
          "internalType": "uint256[]",
          "name": "_amounts",
          "type": "uint256[]"
        }
      ],
      "name": "transferByBatch",
      "outputs": [],
      "stateMutability": "nonpayable",
      "type": "function"
    },
    {
      "inputs": [
        {
          "internalType": "address[]",
          "name": "_senders",
          "type": "address[]"
        },
        {
          "internalType": "address[]",
          "name": "_recipients",
          "type": "address[]"
        },
        {
          "internalType": "uint256[]",
          "name": "_amounts",
          "type": "uint256[]"
        }
      ],
      "name": "transferFromByBatch",
      "outputs": [],
      "stateMutability": "nonpayable",
      "type": "function"
    },
    {
      "inputs": [
        {
          "internalType": "address[]",
          "name": "_from",
          "type": "address[]"
        },
        {
          "internalType": "address[]",
          "name": "_to",
          "type": "address[]"
        },
        {
          "internalType": "uint256[]",
          "name": "_value",
          "type": "uint256[]"
        },
        {
          "internalType": "bytes32[]",
          "name": "_r",
          "type": "bytes32[]"
        },
        {
          "internalType": "bytes32[]",
          "name": "_s",
          "type": "bytes32[]"
        },
        {
          "internalType": "uint8[]",
          "name": "_v",
          "type": "uint8[]"
        }
      ],
      "name": "transferFromByRouter",
      "outputs": [],
      "stateMutability": "nonpayable",
      "type": "function"
    }
  ],
  "bytecode": "0x60006006819055600755630112a88060085560c0604052601c60808190527f19457468657265756d205369676e6564204d6573736167653a0a33320000000060a090815262000052916009919062000483565b50600e805461ffff19908116909155601080549091166127101790553480156200007b57600080fd5b50604051620054503803806200545083398181016040526040811015620000a157600080fd5b508051602091820151604080518082018252600a81526921a72421902a37b5b2b760b11b81860190815282518084019093526004835263434e484360e01b9583019590955280519394929390928391839162000101916003919062000483565b5080516200011790600490602084019062000483565b50506005805460ff19166012179055506200013162000270565b600580546001600160a01b039290921661010002610100600160a81b03199092169190911790556200016262000270565b6001600160a01b031660006001600160a01b03167f8be0079c531659141344cd1fd0a4f28419497f9722a3daafe3b4186f6b6457e060405160405180910390a35060019050600d6000620001b562000274565b6001600160a01b031681526020810191909152604001600020805460ff1916911515919091179055600e805461ffff19811661ffff9182166001019091161790557f0ad2eca75347acd5160276fe4b5dad46987e4ff4af9e574195e3e9bc15d7e0ff6200022162000274565b604080516001600160a01b039092168252519081900360200190a16010805462ff000019169055620002538162000288565b620002686200026162000270565b836200029e565b50506200051f565b3390565b60055461010090046001600160a01b031690565b6005805460ff191660ff92909216919091179055565b6001600160a01b038216620002fa576040805162461bcd60e51b815260206004820152601f60248201527f45524332303a206d696e7420746f20746865207a65726f206164647265737300604482015290519081900360640190fd5b6200030860008383620003ad565b62000324816002546200041260201b62003bf01790919060201c565b6002556001600160a01b038216600090815260208181526040909120546200035791839062003bf062000412821b17901c565b6001600160a01b0383166000818152602081815260408083209490945583518581529351929391927fddf252ad1be2c89b69c2b068fc378daa952ba7f163c4a11628f55a4df523b3ef9281900390910190a35050565b620003c58383836200040d60201b62001c9b1760201c565b620003cf62000474565b156200040d5760405162461bcd60e51b81526004018080602001828103825260258152602001806200542b6025913960400191505060405180910390fd5b505050565b6000828201838110156200046d576040805162461bcd60e51b815260206004820152601b60248201527f536166654d6174683a206164646974696f6e206f766572666c6f770000000000604482015290519081900360640190fd5b9392505050565b60105462010000900460ff1690565b828054600181600116156101000203166002900490600052602060002090601f016020900481019282601f10620004c657805160ff1916838001178555620004f6565b82800160010185558215620004f6579182015b82811115620004f6578251825591602001919060010190620004d9565b506200050492915062000508565b5090565b5b8082111562000504576000815560010162000509565b614efc806200052f6000396000f3fe608060405234801561001057600080fd5b50600436106103a35760003560e01c80638456cb59116101e9578063c497efa31161010f578063e4061dd8116100ad578063f3bdc2281161007c578063f3bdc22814611193578063f3d7d282146111b9578063f4ab9adf146111df578063fb27ec0914611205576103a3565b8063e4061dd814610fd4578063e4997dc514611020578063f244579f14611046578063f2fde38b1461116d576103a3565b8063dd644f72116100e9578063dd644f7214610f68578063dd975f2914610f70578063de38646f14610f8d578063de513e3d14610fb3576103a3565b8063c497efa314610e61578063d1dc5a8814610f19578063dd62ed3e14610f3a576103a3565b8063a3ec138d11610187578063ae2deb6111610156578063ae2deb6114610933578063ae531e7d14610ade578063b7a3446c14610b04578063b846476014610b2a576103a3565b8063a3ec138d14610869578063a457c2d71461088f578063a9059cbb146108bb578063a9f42f41146108e7576103a3565b806395d89b41116101c357806395d89b411461082e57806398c07938146108365780639d2ec1881461083e5780639f17235e14610861576103a3565b80638456cb59146107f857806386c1ff68146108005780638da5cb5b14610826576103a3565b8063313ce567116102ce5780634838d1651161026c5780636ca525201161023b5780636ca525201461079c57806370a08231146107c2578063715018a6146107e857806375dadb32146107f0576103a3565b80634838d165146107275780635c975abb1461074d57806368097127146107555780636ae0b15414610776576103a3565b80633f4ba83a116102a85780633f4ba83a146106b757806340c10f19146106bf57806342966c68146106eb57806344d664af14610708576103a3565b8063313ce567146106655780633539071414610683578063395093511461068b576103a3565b806315bc97b91161034657806324ca984e1161031557806324ca984e146105bf57806326976e3f146105e55780632b9acf69146106095780632eda8a9a1461063f576103a3565b806315bc97b91461050d578063167eba3c1461053957806318160ddd1461058157806323b872dd14610589576103a3565b8063095ea7b311610382578063095ea7b3146104795780630e136b19146104b95780630ecb93c0146104c157806311be0c6d146104e7576103a3565b8062c19330146103a857806306fdde03146103d65780630753c30c14610453575b600080fd5b6103d4600480360360408110156103be57600080fd5b506001600160a01b03813516906020013561120d565b005b6103de6112d7565b6040805160208082528351818301528351919283929083019185019080838360005b83811015610418578181015183820152602001610400565b50505050905090810190601f1680156104455780820380516001836020036101000a031916815260200191505b509250505060405180910390f35b6103d46004803603602081101561046957600080fd5b50356001600160a01b031661136e565b6104a56004803603604081101561048f57600080fd5b506001600160a01b0381351690602001356114c6565b604080519115158252519081900360200190f35b6104a561162b565b6103d4600480360360208110156104d757600080fd5b50356001600160a01b031661163b565b6103d4600480360360208110156104fd57600080fd5b50356001600160a01b03166116f3565b6103d46004803603604081101561052357600080fd5b506001600160a01b0381351690602001356117b8565b61056f6004803603606081101561054f57600080fd5b506001600160a01b03813581169160208101359091169060400135611802565b60408051918252519081900360200190f35b61056f6118ec565b6104a56004803603606081101561059f57600080fd5b506001600160a01b03813581169160208101359091169060400135611991565b6103d4600480360360208110156105d557600080fd5b50356001600160a01b0316611b4e565b6105ed611bcf565b604080516001600160a01b039092168252519081900360200190f35b6103d46004803603606081101561061f57600080fd5b506001600160a01b03813581169160208101359091169060400135611be5565b6103d46004803603602081101561065557600080fd5b50356001600160a01b0316611ca0565b61066d611d62565b6040805160ff9092168252519081900360200190f35b61056f611d6b565b6104a5600480360360408110156106a157600080fd5b506001600160a01b038135169060200135611d71565b6103d4611e41565b6103d4600480360360408110156106d557600080fd5b506001600160a01b038135169060200135611ef1565b6103d46004803603602081101561070157600080fd5b5035611fa8565b610710612002565b6040805161ffff9092168252519081900360200190f35b6104a56004803603602081101561073d57600080fd5b50356001600160a01b031661200c565b6104a5612021565b6104a56004803603602081101561076b57600080fd5b503561ffff16612030565b6103d46004803603602081101561078c57600080fd5b50356001600160a01b03166120d2565b6104a5600480360360208110156107b257600080fd5b50356001600160a01b0316612150565b61056f600480360360208110156107d857600080fd5b50356001600160a01b031661216e565b6103d4612228565b6103de6122e2565b6103d4612370565b6103d46004803603602081101561081657600080fd5b50356001600160a01b031661241e565b6105ed6125a3565b6103de6125b7565b610710612618565b6103d46004803603604081101561085457600080fd5b5080359060200135612622565b6105ed6126a3565b6104a56004803603602081101561087f57600080fd5b50356001600160a01b03166126b2565b6104a5600480360360408110156108a557600080fd5b506001600160a01b0381351690602001356126c7565b6104a5600480360360408110156108d157600080fd5b506001600160a01b038135169060200135612797565b6103d4600480360360c08110156108fd57600080fd5b5080356001600160a01b039081169160208101359091169060408101359060608101359060808101359060a0013560ff16612867565b6103d46004803603606081101561094957600080fd5b81019060208101813564010000000081111561096457600080fd5b82018360208201111561097657600080fd5b8035906020019184602083028401116401000000008311171561099857600080fd5b91908080602002602001604051908101604052809392919081815260200183836020028082843760009201919091525092959493602081019350359150506401000000008111156109e857600080fd5b8201836020820111156109fa57600080fd5b80359060200191846020830284011164010000000083111715610a1c57600080fd5b9190808060200260200160405190810160405280939291908181526020018383602002808284376000920191909152509295949360208101935035915050640100000000811115610a6c57600080fd5b820183602082011115610a7e57600080fd5b80359060200191846020830284011164010000000083111715610aa057600080fd5b9190808060200260200160405190810160405280939291908181526020018383602002808284376000920191909152509295506128ef945050505050565b6103d460048036036020811015610af457600080fd5b50356001600160a01b0316612b02565b61056f60048036036020811015610b1a57600080fd5b50356001600160a01b0316612b99565b6103d4600480360360c0811015610b4057600080fd5b810190602081018135640100000000811115610b5b57600080fd5b820183602082011115610b6d57600080fd5b80359060200191846020830284011164010000000083111715610b8f57600080fd5b9190808060200260200160405190810160405280939291908181526020018383602002808284376000920191909152509295949360208101935035915050640100000000811115610bdf57600080fd5b820183602082011115610bf157600080fd5b80359060200191846020830284011164010000000083111715610c1357600080fd5b9190808060200260200160405190810160405280939291908181526020018383602002808284376000920191909152509295949360208101935035915050640100000000811115610c6357600080fd5b820183602082011115610c7557600080fd5b80359060200191846020830284011164010000000083111715610c9757600080fd5b9190808060200260200160405190810160405280939291908181526020018383602002808284376000920191909152509295949360208101935035915050640100000000811115610ce757600080fd5b820183602082011115610cf957600080fd5b80359060200191846020830284011164010000000083111715610d1b57600080fd5b9190808060200260200160405190810160405280939291908181526020018383602002808284376000920191909152509295949360208101935035915050640100000000811115610d6b57600080fd5b820183602082011115610d7d57600080fd5b80359060200191846020830284011164010000000083111715610d9f57600080fd5b9190808060200260200160405190810160405280939291908181526020018383602002808284376000920191909152509295949360208101935035915050640100000000811115610def57600080fd5b820183602082011115610e0157600080fd5b80359060200191846020830284011164010000000083111715610e2357600080fd5b919080806020026020016040519081016040528093929190818152602001838360200280828437600092019190915250929550612bf3945050505050565b610e8260048036036020811015610e7757600080fd5b503561ffff16612e93565b604051808561ffff1681526020018461ffff168152602001831515815260200180602001828103825283818151815260200191508051906020019080838360005b83811015610edb578181015183820152602001610ec3565b50505050905090810190601f168015610f085780820380516001836020036101000a031916815260200191505b509550505050505060405180910390f35b6103d460048036036020811015610f2f57600080fd5b503561ffff16612f55565b61056f60048036036040811015610f5057600080fd5b506001600160a01b03813581169160200135166131d6565b61056f6132a5565b6103d460048036036020811015610f8657600080fd5b50356132ab565b6103d460048036036020811015610fa357600080fd5b50356001600160a01b0316613319565b6103d460048036036020811015610fc957600080fd5b503561ffff166133db565b6105ed600480360360c0811015610fea57600080fd5b5080356001600160a01b039081169160208101359091169060408101359060608101359060808101359060a0013560ff16613572565b6103d46004803603602081101561103657600080fd5b50356001600160a01b03166135ee565b6103d46004803603604081101561105c57600080fd5b81019060208101813564010000000081111561107757600080fd5b82018360208201111561108957600080fd5b803590602001918460208302840111640100000000831117156110ab57600080fd5b91908080602002602001604051908101604052809392919081815260200183836020028082843760009201919091525092959493602081019350359150506401000000008111156110fb57600080fd5b82018360208201111561110d57600080fd5b8035906020019184602083028401116401000000008311171561112f57600080fd5b9190808060200260200160405190810160405280939291908181526020018383602002808284376000920191909152509295506136a3945050505050565b6103d46004803603602081101561118357600080fd5b50356001600160a01b0316613836565b6103d4600480360360208110156111a957600080fd5b50356001600160a01b031661394c565b6104a5600480360360208110156111cf57600080fd5b50356001600160a01b0316613a97565b6103d4600480360360208110156111f557600080fd5b50356001600160a01b0316613ab5565b61056f613bea565b611215613c4a565b60055461010090046001600160a01b0390811691161461126a576040805162461bcd60e51b81526020600482018190526024820152600080516020614cdb833981519152604482015290519081900360640190fd5b604080516001600160a01b038416602482015260448082018490528251808303909101815260649091019091526020810180516001600160e01b03167f40c10f19000000000000000000000000000000000000000000000000000000001790526112d390613c4e565b5050565b60038054604080516020601f60026000196101006001881615020190951694909404938401819004810282018101909252828152606093909290918301828280156113635780601f1061133857610100808354040283529160200191611363565b820191906000526020600020905b81548152906001019060200180831161134657829003601f168201915b505050505090505b90565b611376613c4a565b60055461010090046001600160a01b039081169116146113cb576040805162461bcd60e51b81526020600482018190526024820152600080516020614cdb833981519152604482015290519081900360640190fd5b601054600160b81b900460ff16156114145760405162461bcd60e51b8152600401808060200182810382526022815260200180614da36022913960400191505060405180910390fd5b6001600160a01b03811661142757600080fd5b60108054600160b81b7fffffffffffffffff00ffffffffffffffffffffffffffffffffffffffffffffff909116177fffffffffffffffffff0000000000000000000000000000000000000000ffffff1663010000006001600160a01b0384169081029190911790915560408051918252517fcc358699805e9a8b7f77b522628c7cb9abd07d9efb86b6fb616af1609036a99e916020908290030190a150565b60006114d0613c4a565b6114d981612150565b156115155760405162461bcd60e51b8152600401808060200182810382526027815260200180614c466027913960400191505060405180910390fd5b61151e84612150565b1561155a5760405162461bcd60e51b815260040180806020018281038252602a815260200180614aa8602a913960400191505060405180910390fd5b601054600160b81b900460ff161561161757601054630100000090046001600160a01b031663aee92d3361158c613c4a565b86866040518463ffffffff1660e01b815260040180846001600160a01b03168152602001836001600160a01b031681526020018281526020019350505050602060405180830381600087803b1580156115e457600080fd5b505af11580156115f8573d6000803e3d6000fd5b505050506040513d602081101561160e57600080fd5b50519150611624565b6116218484613d34565b91505b5092915050565b601054600160b81b900460ff1681565b611643613c4a565b60055461010090046001600160a01b03908116911614611698576040805162461bcd60e51b81526020600482018190526024820152600080516020614cdb833981519152604482015290519081900360640190fd5b6001600160a01b0381166000818152600c6020908152604091829020805460ff19166001179055815192835290517f42e160154868087d6bfdc0ca23d96a1c1cfa32f1b72ba9ba27b69b98a0d819dc9281900390910190a150565b6116fb613c4a565b60055461010090046001600160a01b03908116911614611750576040805162461bcd60e51b81526020600482018190526024820152600080516020614cdb833981519152604482015290519081900360640190fd5b604080516001600160a01b0383166024808301919091528251808303909101815260449091019091526020810180516001600160e01b03167ff3bdc228000000000000000000000000000000000000000000000000000000001790526117b590613c4e565b50565b60006117c382613d51565b905060006117d18383613d8b565b90506117dd8482613dcd565b5081156117fc57600a546117fa906001600160a01b031683613dcd565b505b50505050565b600060098484843060405160200180856001600160a01b031660601b8152601401846001600160a01b031660601b8152601401838152602001826001600160a01b031660601b81526014019450505050506040516020818303038152906040528051906020012060405160200180838054600181600116156101000203166002900480156118c75780601f106118a55761010080835404028352918201916118c7565b820191906000526020600020905b8154815290600101906020018083116118b3575b5050918252506040805180830381526020928301909152805191012095945050505050565b601054600090600160b81b900460ff161561198257601060039054906101000a90046001600160a01b03166001600160a01b03166318160ddd6040518163ffffffff1660e01b815260040160206040518083038186803b15801561194f57600080fd5b505afa158015611963573d6000803e3d6000fd5b505050506040513d602081101561197957600080fd5b5051905061136b565b61198a613de1565b905061136b565b600061199b613c4a565b6119a481612150565b156119e05760405162461bcd60e51b8152600401808060200182810382526027815260200180614c466027913960400191505060405180910390fd5b6119e985612150565b15611a255760405162461bcd60e51b8152600401808060200182810382526029815260200180614bbf6029913960400191505060405180910390fd5b611a2e84612150565b15611a6a5760405162461bcd60e51b815260040180806020018281038252602c815260200180614b01602c913960400191505060405180910390fd5b601054600160b81b900460ff1615611b3857601054630100000090046001600160a01b0316638b477adb611a9c613c4a565b8787876040518563ffffffff1660e01b815260040180856001600160a01b03168152602001846001600160a01b03168152602001836001600160a01b03168152602001828152602001945050505050602060405180830381600087803b158015611b0557600080fd5b505af1158015611b19573d6000803e3d6000fd5b505050506040513d6020811015611b2f57600080fd5b50519150611b46565b611b43858585613de7565b91505b509392505050565b611b56613c4a565b60055461010090046001600160a01b03908116911614611bab576040805162461bcd60e51b81526020600482018190526024820152600080516020614cdb833981519152604482015290519081900360640190fd5b6001600160a01b03166000908152600b60205260409020805460ff19166001179055565b601054630100000090046001600160a01b031681565b6001600160a01b03821615801590611c055750611c018361216e565b8111155b8015611c1a5750611c1683336131d6565b8111155b15611c9b576000611c2a82613d51565b90506000611c388383613d8b565b9050611c45858583613f39565b8115611c6357600a54611c639086906001600160a01b031684613f39565b6117fa8533611c96866040518060600160405280602f8152602001614ad2602f9139611c8f8b336131d6565b9190614094565b61412b565b505050565b611ca8613c4a565b60055461010090046001600160a01b03908116911614611cfd576040805162461bcd60e51b81526020600482018190526024820152600080516020614cdb833981519152604482015290519081900360640190fd5b604080516001600160a01b0383166024808301919091528251808303909101815260449091019091526020810180516001600160e01b03167f86c1ff68000000000000000000000000000000000000000000000000000000001790526117b590613c4e565b60055460ff1690565b60075481565b6000611d7b613c4a565b611d8481612150565b15611dc05760405162461bcd60e51b8152600401808060200182810382526027815260200180614c466027913960400191505060405180910390fd5b611dc984612150565b15611e055760405162461bcd60e51b815260040180806020018281038252602a815260200180614aa8602a913960400191505060405180910390fd5b601054600160b81b900460ff1615611e3757601054630100000090046001600160a01b031663a953815761158c613c4a565b6116218484614217565b611e49613c4a565b60055461010090046001600160a01b03908116911614611e9e576040805162461bcd60e51b81526020600482018190526024820152600080516020614cdb833981519152604482015290519081900360640190fd5b601054600160b81b900460ff1615611ee75760405162461bcd60e51b8152600401808060200182810382526022815260200180614da36022913960400191505060405180910390fd5b611eef614265565b565b30611efa613c4a565b6001600160a01b031614611f55576040805162461bcd60e51b815260206004820152601b60248201527f566f7461626c653a206f6e6c792073656c662063616e2063616c6c0000000000604482015290519081900360640190fd5b601054600160b81b900460ff1615611f9e5760405162461bcd60e51b8152600401808060200182810382526022815260200180614da36022913960400191505060405180910390fd5b6112d38282614314565b601054600160b81b900460ff1615611ff15760405162461bcd60e51b8152600401808060200182810382526022815260200180614da36022913960400191505060405180910390fd5b6117b5611ffc613c4a565b82614404565b60105461ffff1681565b600c6020526000908152604090205460ff1681565b60105462010000900460ff1690565b61ffff8082166000818152600f6020526040812080549193909291161461209e576040805162461bcd60e51b815260206004820152601c60248201527f566f7461626c653a2070726f706f73616c206e6f742065786973747300000000604482015290519081900360640190fd5b8060020160006120ac613c4a565b6001600160a01b0316815260208101919091526040016000205460ff169150505b919050565b6120da613c4a565b60055461010090046001600160a01b0390811691161461212f576040805162461bcd60e51b81526020600482018190526024820152600080516020614cdb833981519152604482015290519081900360640190fd5b6001600160a01b03166000908152600b60205260409020805460ff19169055565b6001600160a01b03166000908152600c602052604090205460ff1690565b601054600090600160b81b900460ff161561221857601060039054906101000a90046001600160a01b03166001600160a01b03166370a08231836040518263ffffffff1660e01b815260040180826001600160a01b0316815260200191505060206040518083038186803b1580156121e557600080fd5b505afa1580156121f9573d6000803e3d6000fd5b505050506040513d602081101561220f57600080fd5b505190506120cd565b61222182614500565b90506120cd565b612230613c4a565b60055461010090046001600160a01b03908116911614612285576040805162461bcd60e51b81526020600482018190526024820152600080516020614cdb833981519152604482015290519081900360640190fd5b60055460405160009161010090046001600160a01b0316907f8be0079c531659141344cd1fd0a4f28419497f9722a3daafe3b4186f6b6457e0908390a36005805474ffffffffffffffffffffffffffffffffffffffff0019169055565b6009805460408051602060026001851615610100026000190190941693909304601f810184900484028201840190925281815292918301828280156123685780601f1061233d57610100808354040283529160200191612368565b820191906000526020600020905b81548152906001019060200180831161234b57829003601f168201915b505050505081565b612378613c4a565b60055461010090046001600160a01b039081169116146123cd576040805162461bcd60e51b81526020600482018190526024820152600080516020614cdb833981519152604482015290519081900360640190fd5b601054600160b81b900460ff16156124165760405162461bcd60e51b8152600401808060200182810382526022815260200180614da36022913960400191505060405180910390fd5b611eef61451b565b30612427613c4a565b6001600160a01b031614612482576040805162461bcd60e51b815260206004820152601b60248201527f566f7461626c653a206f6e6c792073656c662063616e2063616c6c0000000000604482015290519081900360640190fd5b6001600160a01b0381166000908152600d602052604090205460ff166124d95760405162461bcd60e51b8152600401808060200182810382526024815260200180614e3b6024913960400191505060405180910390fd5b6124e16125a3565b6001600160a01b0316816001600160a01b031614156125315760405162461bcd60e51b8152600401808060200182810382526021815260200180614e5f6021913960400191505060405180910390fd5b6001600160a01b0381166000818152600d6020908152604091829020805460ff19169055600e805461ffff19811661ffff91821660001901909116179055815192835290517f1c959242c0718835c6a0d1fdc1c02056059ed6025bd0bfb268523cf23825ac4f9281900390910190a150565b60055461010090046001600160a01b031690565b60048054604080516020601f60026000196101006001881615020190951694909404938401819004810282018101909252828152606093909290918301828280156113635780601f1061133857610100808354040283529160200191611363565b600e5461ffff1681565b61262a613c4a565b60055461010090046001600160a01b0390811691161461267f576040805162461bcd60e51b81526020600482018190526024820152600080516020614cdb833981519152604482015290519081900360640190fd5b600682905561269c61268f611d62565b829060ff16600a0a6145b3565b6007555050565b600a546001600160a01b031681565b600d6020526000908152604090205460ff1681565b60006126d1613c4a565b6126da81612150565b156127165760405162461bcd60e51b8152600401808060200182810382526027815260200180614c466027913960400191505060405180910390fd5b61271f84612150565b1561275b5760405162461bcd60e51b815260040180806020018281038252602a815260200180614aa8602a913960400191505060405180910390fd5b601054600160b81b900460ff161561278d57601054630100000090046001600160a01b0316636001279f61158c613c4a565b611621848461460c565b60006127a1613c4a565b6127aa81612150565b156127e65760405162461bcd60e51b8152600401808060200182810382526027815260200180614c466027913960400191505060405180910390fd5b6127ef84612150565b1561282b5760405162461bcd60e51b815260040180806020018281038252602c815260200180614b01602c913960400191505060405180910390fd5b601054600160b81b900460ff161561285d57601054630100000090046001600160a01b0316636e18980a61158c613c4a565b6116218484614674565b336000908152600b602052604090205460ff166128b55760405162461bcd60e51b815260040180806020018281038252602f815260200180614d74602f913960400191505060405180910390fd5b856001600160a01b03166128cd878787878787613572565b6001600160a01b031614156128e7576128e78686866146c4565b505050505050565b6128f7613c4a565b61290081612150565b1561293c5760405162461bcd60e51b8152600401808060200182810382526027815260200180614c466027913960400191505060405180910390fd5b601054600160b81b900460ff1615612a7d5760005b8451811015612a775761297685828151811061296957fe5b6020026020010151612150565b15801561298f575061298d84828151811061296957fe5b155b15612a6f57601054630100000090046001600160a01b031663059237a36129b4613c4a565b8784815181106129c057fe5b60200260200101518785815181106129d457fe5b60200260200101518786815181106129e857fe5b60200260200101516040518563ffffffff1660e01b815260040180856001600160a01b03168152602001846001600160a01b03168152602001836001600160a01b03168152602001828152602001945050505050600060405180830381600087803b158015612a5657600080fd5b505af1158015612a6a573d6000803e3d6000fd5b505050505b600101612951565b506117fc565b60005b84518110156117fa57612a9885828151811061296957fe5b158015612ab15750612aaf84828151811061296957fe5b155b15612afa57612afa858281518110612ac557fe5b6020026020010151858381518110612ad957fe5b6020026020010151858481518110612aed57fe5b6020026020010151611be5565b600101612a80565b612b0a613c4a565b60055461010090046001600160a01b03908116911614612b5f576040805162461bcd60e51b81526020600482018190526024820152600080516020614cdb833981519152604482015290519081900360640190fd5b600a80547fffffffffffffffffffffffff0000000000000000000000000000000000000000166001600160a01b0392909216919091179055565b601054600090600160b81b900460ff16612be45760405162461bcd60e51b8152600401808060200182810382526022815260200180614e806022913960400191505060405180910390fd5b612bed82614500565b92915050565b336000908152600b602052604090205460ff16612c415760405162461bcd60e51b815260040180806020018281038252602f815260200180614d74602f913960400191505060405180910390fd5b601054600160b81b900460ff1615612dc95760005b8651811015612dc357612c6e87828151811061296957fe5b158015612c875750612c8586828151811061296957fe5b155b15612dbb57601054630100000090046001600160a01b031663041deaa8612cac613c4a565b898481518110612cb857fe5b6020026020010151898581518110612ccc57fe5b6020026020010151898681518110612ce057fe5b6020026020010151898781518110612cf457fe5b6020026020010151898881518110612d0857fe5b6020026020010151898981518110612d1c57fe5b60200260200101516040518863ffffffff1660e01b815260040180886001600160a01b03168152602001876001600160a01b03168152602001866001600160a01b031681526020018581526020018481526020018381526020018260ff168152602001975050505050505050600060405180830381600087803b158015612da257600080fd5b505af1158015612db6573d6000803e3d6000fd5b505050505b600101612c56565b506128e7565b60005b8651811015612e8a57612de487828151811061296957fe5b158015612dfd5750612dfb86828151811061296957fe5b155b15612e8257612e82878281518110612e1157fe5b6020026020010151878381518110612e2557fe5b6020026020010151878481518110612e3957fe5b6020026020010151878581518110612e4d57fe5b6020026020010151878681518110612e6157fe5b6020026020010151878781518110612e7557fe5b6020026020010151612867565b600101612dcc565b50505050505050565b600f602090815260009182526040918290208054600180830180548651600261010094831615949094026000190190911692909204601f810186900486028301860190965285825261ffff808416966201000085049091169564010000000090940460ff169493830182828015612f4b5780601f10612f2057610100808354040283529160200191612f4b565b820191906000526020600020905b815481529060010190602001808311612f2e57829003601f168201915b5050505050905084565b600d6000612f61613c4a565b6001600160a01b0316815260208101919091526040016000205460ff16612fcf576040805162461bcd60e51b815260206004820152601c60248201527f566f7461626c653a206f6e6c7920766f7465722063616e2063616c6c00000000604482015290519081900360640190fd5b61ffff8082166000818152600f602052604090205483921614613039576040805162461bcd60e51b815260206004820152601c60248201527f566f7461626c653a2070726f706f73616c206e6f742065786973747300000000604482015290519081900360640190fd5b61ffff81166000908152600f6020526040902054640100000000900460ff16156130aa576040805162461bcd60e51b815260206004820152601960248201527f566f7461626c653a2070726f706f73616c20697320646f6e6500000000000000604482015290519081900360640190fd5b61ffff82166000908152600f602052604081209060028201906130cb613c4a565b6001600160a01b0316815260208101919091526040016000205460ff16156131245760405162461bcd60e51b8152600401808060200182810382526028815260200180614b976028913960400191505060405180910390fd5b6001816002016000613134613c4a565b6001600160a01b031681526020810191909152604001600020805460ff1916911515919091179055805463ffff0000198116620100009182900461ffff908116600101169091021781557f7313139463b6c2096b7200e02a3c6452f21ba9b1fc1a7893f8fea395f96fb1f5836131a8613c4a565b6040805161ffff90931683526001600160a01b0390911660208301528051918290030190a1611c9b81614759565b601054600090600160b81b900460ff161561329457601054604080517fdd62ed3e0000000000000000000000000000000000000000000000000000000081526001600160a01b0386811660048301528581166024830152915163010000009093049091169163dd62ed3e91604480820192602092909190829003018186803b15801561326157600080fd5b505afa158015613275573d6000803e3d6000fd5b505050506040513d602081101561328b57600080fd5b50519050612bed565b61329e83836148d0565b9392505050565b60065481565b6132b3613c4a565b60055461010090046001600160a01b03908116911614613308576040805162461bcd60e51b81526020600482018190526024820152600080516020614cdb833981519152604482015290519081900360640190fd5b61331361268f611d62565b60085550565b613321613c4a565b60055461010090046001600160a01b03908116911614613376576040805162461bcd60e51b81526020600482018190526024820152600080516020614cdb833981519152604482015290519081900360640190fd5b604080516001600160a01b0383166024808301919091528251808303909101815260449091019091526020810180516001600160e01b03167ff4ab9adf000000000000000000000000000000000000000000000000000000001790526117b590613c4e565b61ffff8082166000818152600f602052604090205483921614613445576040805162461bcd60e51b815260206004820152601c60248201527f566f7461626c653a2070726f706f73616c206e6f742065786973747300000000604482015290519081900360640190fd5b61ffff81166000908152600f6020526040902054640100000000900460ff16156134b6576040805162461bcd60e51b815260206004820152601960248201527f566f7461626c653a2070726f706f73616c20697320646f6e6500000000000000604482015290519081900360640190fd5b6134be613c4a565b60055461010090046001600160a01b03908116911614613513576040805162461bcd60e51b81526020600482018190526024820152600080516020614cdb833981519152604482015290519081900360640190fd5b61ffff82166000818152600f6020908152604091829020805464ff000000001916640100000000179055815192835290517f90e42b47bbe58e6e72598349aa50e83f3c8afe5dba12be98e47fac63c50d3b9f9281900390910190a15050565b60006001613581888888611802565b83868660405160008152602001604052604051808581526020018460ff1681526020018381526020018281526020019450505050506020604051602081039080840390855afa1580156135d8573d6000803e3d6000fd5b5050604051601f19015198975050505050505050565b6135f6613c4a565b60055461010090046001600160a01b0390811691161461364b576040805162461bcd60e51b81526020600482018190526024820152600080516020614cdb833981519152604482015290519081900360640190fd5b6001600160a01b0381166000818152600c6020908152604091829020805460ff19169055815192835290517fd7e9ec6e6ecd65492dce6bf513cd6867560d49544421d0783ddf06e76c24470c9281900390910190a150565b6136ab613c4a565b6136b481612150565b156136f05760405162461bcd60e51b8152600401808060200182810382526027815260200180614c466027913960400191505060405180910390fd5b601054600160b81b900460ff16156137df5760005b83518110156137d95761371d84828151811061296957fe5b6137d157601060039054906101000a90046001600160a01b03166001600160a01b0316631e8a29a385838151811061375157fe5b602002602001015185848151811061376557fe5b60200260200101516040518363ffffffff1660e01b815260040180836001600160a01b0316815260200182815260200192505050600060405180830381600087803b1580156137b357600080fd5b505af11580156137c7573d6000803e3d6000fd5b5050505050611c9b565b600101613705565b50611c9b565b60005b83518110156117fc576137fa84828151811061296957fe5b61382e576137d984828151811061380d57fe5b602002602001015184838151811061382157fe5b60200260200101516117b8565b6001016137e2565b61383e613c4a565b60055461010090046001600160a01b03908116911614613893576040805162461bcd60e51b81526020600482018190526024820152600080516020614cdb833981519152604482015290519081900360640190fd5b6001600160a01b0381166138d85760405162461bcd60e51b8152600401808060200182810382526026815260200180614b4f6026913960400191505060405180910390fd5b6005546040516001600160a01b0380841692610100900416907f8be0079c531659141344cd1fd0a4f28419497f9722a3daafe3b4186f6b6457e090600090a3600580546001600160a01b039092166101000274ffffffffffffffffffffffffffffffffffffffff0019909216919091179055565b30613955613c4a565b6001600160a01b0316146139b0576040805162461bcd60e51b815260206004820152601b60248201527f566f7461626c653a206f6e6c792073656c662063616e2063616c6c0000000000604482015290519081900360640190fd5b601054600160b81b900460ff16156139f95760405162461bcd60e51b8152600401808060200182810382526022815260200180614da36022913960400191505060405180910390fd5b613a0281612150565b613a3d5760405162461bcd60e51b8152600401808060200182810382526038815260200180614c0e6038913960400191505060405180910390fd5b6000613a488261216e565b9050613a548282614404565b6040805182815290516001600160a01b038416917f61e6e66b0d6339b2980aecc6ccc0039736791f0ccde9ed512e789a7fbdd698c6919081900360200190a25050565b6001600160a01b03166000908152600b602052604090205460ff1690565b30613abe613c4a565b6001600160a01b031614613b19576040805162461bcd60e51b815260206004820152601b60248201527f566f7461626c653a206f6e6c792073656c662063616e2063616c6c0000000000604482015290519081900360640190fd5b6001600160a01b0381166000908152600d602052604090205460ff1615613b715760405162461bcd60e51b8152600401808060200182810382526028815260200180614c6d6028913960400191505060405180910390fd5b6001600160a01b0381166000818152600d60209081526040918290208054600160ff199091168117909155600e805461ffff19811661ffff91821690930116919091179055815192835290517f0ad2eca75347acd5160276fe4b5dad46987e4ff4af9e574195e3e9bc15d7e0ff9281900390910190a150565b60085481565b60008282018381101561329e576040805162461bcd60e51b815260206004820152601b60248201527f536166654d6174683a206164646974696f6e206f766572666c6f770000000000604482015290519081900360640190fd5b3390565b6010805461ffff8082166001818101831661ffff19948516179094556040805160808101825282815260006020808301828152838501838152606085018b8152878552600f845295909320845181549251945115156401000000000264ff0000000019958a16620100000263ffff00001992909a1693909a16929092179190911696909617919091169590951784559051805192959194613cf593928501929101906149f1565b50506040805161ffff8416815290517f51997f8715e3c335ae20eab683f42aa156edf3848416b9187dd726408a25d94392509081900360200190a15050565b6000613d48613d41613c4a565b848461412b565b50600192915050565b600080613d75612710613d6f600654866145b390919063ffffffff16565b906148fb565b9050600754811115612bed575060075492915050565b600061329e83836040518060400160405280601e81526020017f536166654d6174683a207375627472616374696f6e206f766572666c6f770000815250614094565b6000613d48613dda613c4a565b8484613f39565b60025490565b60006001600160a01b038316613e2e5760405162461bcd60e51b815260040180806020018281038252602a815260200180614d29602a913960400191505060405180910390fd5b613e378461216e565b821115613e755760405162461bcd60e51b815260040180806020018281038252602d815260200180614dea602d913960400191505060405180910390fd5b613e7f84336131d6565b821115613ebd5760405162461bcd60e51b815260040180806020018281038252602e815260200180614cfb602e913960400191505060405180910390fd5b6000613ec883613d51565b90506000613ed68483613d8b565b9050613ee3868683613f39565b8115613f0157600a54613f019087906001600160a01b031684613f39565b613f2d8633611c96876040518060600160405280602f8152602001614ad2602f9139611c8f8c336131d6565b50600195945050505050565b6001600160a01b038316613f7e5760405162461bcd60e51b8152600401808060200182810382526025815260200180614dc56025913960400191505060405180910390fd5b6001600160a01b038216613fc35760405162461bcd60e51b8152600401808060200182810382526023815260200180614a856023913960400191505060405180910390fd5b613fce83838361493d565b61400b81604051806060016040528060268152602001614be8602691396001600160a01b0386166000908152602081905260409020549190614094565b6001600160a01b03808516600090815260208190526040808220939093559084168152205461403a9082613bf0565b6001600160a01b038084166000818152602081815260409182902094909455805185815290519193928716927fddf252ad1be2c89b69c2b068fc378daa952ba7f163c4a11628f55a4df523b3ef92918290030190a3505050565b600081848411156141235760405162461bcd60e51b81526004018080602001828103825283818151815260200191508051906020019080838360005b838110156140e85781810151838201526020016140d0565b50505050905090810190601f1680156141155780820380516001836020036101000a031916815260200191505b509250505060405180910390fd5b505050900390565b6001600160a01b0383166141705760405162461bcd60e51b8152600401808060200182810382526024815260200180614e176024913960400191505060405180910390fd5b6001600160a01b0382166141b55760405162461bcd60e51b8152600401808060200182810382526022815260200180614b756022913960400191505060405180910390fd5b6001600160a01b03808416600081815260016020908152604080832094871680845294825291829020859055815185815291517f8c5be1e5ebec7d5bd14f71427d1e84f3dd0314c0f7b2291e5b200ac8c7c3b9259281900390910190a3505050565b6000613d48614224613c4a565b84611c968560016000614235613c4a565b6001600160a01b03908116825260208083019390935260409182016000908120918c168152925290205490613bf0565b60105462010000900460ff166142c2576040805162461bcd60e51b815260206004820152601460248201527f5061757361626c653a206e6f7420706175736564000000000000000000000000604482015290519081900360640190fd5b6010805462ff0000191690557f5db9ee0a495bf2e6ff9c91a7834c1ba4fdd244a5e8aa4e537bd38aeae4b073aa6142f7613c4a565b604080516001600160a01b039092168252519081900360200190a1565b6001600160a01b03821661436f576040805162461bcd60e51b815260206004820152601f60248201527f45524332303a206d696e7420746f20746865207a65726f206164647265737300604482015290519081900360640190fd5b61437b6000838361493d565b6002546143889082613bf0565b6002556001600160a01b0382166000908152602081905260409020546143ae9082613bf0565b6001600160a01b0383166000818152602081815260408083209490945583518581529351929391927fddf252ad1be2c89b69c2b068fc378daa952ba7f163c4a11628f55a4df523b3ef9281900390910190a35050565b6001600160a01b0382166144495760405162461bcd60e51b8152600401808060200182810382526021815260200180614d536021913960400191505060405180910390fd5b6144558260008361493d565b61449281604051806060016040528060228152602001614b2d602291396001600160a01b0385166000908152602081905260409020549190614094565b6001600160a01b0383166000908152602081905260409020556002546144b89082613d8b565b6002556040805182815290516000916001600160a01b038516917fddf252ad1be2c89b69c2b068fc378daa952ba7f163c4a11628f55a4df523b3ef9181900360200190a35050565b6001600160a01b031660009081526020819052604090205490565b60105462010000900460ff1615614579576040805162461bcd60e51b815260206004820152601060248201527f5061757361626c653a2070617573656400000000000000000000000000000000604482015290519081900360640190fd5b6010805462ff00001916620100001790557f62e78cea01bee320cd4e420270b5ea74000d11b0c9f74754ebdbfc544b05a2586142f7613c4a565b6000826145c257506000612bed565b828202828482816145cf57fe5b041461329e5760405162461bcd60e51b8152600401808060200182810382526021815260200180614c956021913960400191505060405180910390fd5b6000613d48614619613c4a565b84611c9685604051806060016040528060258152602001614ea26025913960016000614643613c4a565b6001600160a01b03908116825260208083019390935260409182016000908120918d16815292529020549190614094565b60008061468083613d51565b9050600061468e8483613d8b565b905061469a8582613dcd565b5081156146b957600a546146b7906001600160a01b031683613dcd565b505b506001949350505050565b6001600160a01b038216158015906146e457506146e08361216e565b8111155b15611c9b5760006146f482613d51565b905060006147028383613d8b565b905061471960085482613d8b90919063ffffffff16565b9050614726858583613f39565b811561474457600a546147449086906001600160a01b031684613f39565b600854156117fa576117fa8532600854613f39565b600e548154600261ffff9283160482166201000090910490911611156117b5576000306001600160a01b03168260010160405180828054600181600116156101000203166002900480156147e45780601f106147c25761010080835404028352918201916147e4565b820191906000526020600020905b8154815290600101906020018083116147d0575b50509150506000604051808303816000865af19150503d8060008114614826576040519150601f19603f3d011682016040523d82523d6000602084013e61482b565b606091505b5050905080614881576040805162461bcd60e51b815260206004820152601c60248201527f566f7461626c653a2063616c6c207061796c6f6164206661696c656400000000604482015290519081900360640190fd5b815464ff000000001916640100000000178083556040805161ffff9092168252517f33fd8f5edaebafa8acc373f0bef6ca907a131bb5fdcc4d129b0512991f6335149181900360200190a15050565b6001600160a01b03918216600090815260016020908152604080832093909416825291909152205490565b600061329e83836040518060400160405280601a81526020017f536166654d6174683a206469766973696f6e206279207a65726f00000000000081525061498c565b614948838383611c9b565b614950612021565b15611c9b5760405162461bcd60e51b8152600401808060200182810382526025815260200180614cb66025913960400191505060405180910390fd5b600081836149db5760405162461bcd60e51b81526020600482018181528351602484015283519092839260449091019190850190808383600083156140e85781810151838201526020016140d0565b5060008385816149e757fe5b0495945050505050565b828054600181600116156101000203166002900490600052602060002090601f016020900481019282601f10614a3257805160ff1916838001178555614a5f565b82800160010185558215614a5f579182015b82811115614a5f578251825591602001919060010190614a44565b50614a6b929150614a6f565b5090565b5b80821115614a6b5760008155600101614a7056fe45524332303a207472616e7366657220746f20746865207a65726f2061646472657373426c61636b4c6973743a207370656e646572206164647265737320697320696e20626c61636b6c6973744552433230576974684665653a207472616e7366657220616d6f756e74206578636565647320616c6c6f77616e6365426c61636b4c6973743a20726563697069656e74206164647265737320697320696e20626c61636b6c69737445524332303a206275726e20616d6f756e7420657863656564732062616c616e63654f776e61626c653a206e6577206f776e657220697320746865207a65726f206164647265737345524332303a20617070726f766520746f20746865207a65726f2061646472657373566f7461626c653a206475706c696361746520766f74696e67206973206e6f7420616c6c6f776564426c61636b4c6973743a2073656e646572206164647265737320697320696e20626c61636b6c69737445524332303a207472616e7366657220616d6f756e7420657863656564732062616c616e6365434e4843546f6b656e3a206f6e6c792066756e6420696e20626c61636b6c69737420616464726573732063616e2062652064657374726f79426c61636b4c6973743a2074686973206164647265737320697320696e20626c61636b6c697374566f7461626c653a2074686973206164647265737320697320616c7265616479206120766f746572536166654d6174683a206d756c7469706c69636174696f6e206f766572666c6f775061757361626c653a20746f6b656e207472616e73666572207768696c65207061757365644f776e61626c653a2063616c6c6572206973206e6f7420746865206f776e65724552433230576974684665653a20616c6c6f77616e636520616d6f756e74206578636565647320616c6c6f7765644552433230576974684665653a207472616e7366657220746f20746865207a65726f206164647265737345524332303a206275726e2066726f6d20746865207a65726f2061646472657373455243323057697468466565416e64526f757465723a2063616c6c6572206973206e6f742074686520726f75746572434e4843546f6b656e3a20636f6e747261637420776173206465707265636174656445524332303a207472616e736665722066726f6d20746865207a65726f20616464726573734552433230576974684665653a207472616e7366657220616d6f756e7420657863656564732062616c616e636545524332303a20617070726f76652066726f6d20746865207a65726f2061646472657373566f7461626c653a20746869732061646472657373206973206e6f74206120766f746572566f7461626c653a206f776e65722063616e206e6f742062652072656d6f766564434e4843546f6b656e3a20636f6e7472616374204e4f54206465707265636174656445524332303a2064656372656173656420616c6c6f77616e63652062656c6f77207a65726fa264697066735822122052793573cadc954e0e688d7134d6aabe155429cdad1e64832a076c75d9a34c2464736f6c634300060c00335061757361626c653a20746f6b656e207472616e73666572207768696c6520706175736564",
  "immutableReferences": {},
  "source": "// SPDX-License-Identifier: MIT\npragma solidity ^0.6.2;\n\nimport \"./Pausable.sol\";\nimport \"./BlackList.sol\";\nimport \"./Votable.sol\";\nimport \"./UpgradedStandardToken.sol\";\nimport \"./ERC20WithFeeAndRouter.sol\";\n\ncontract CNHCToken is ERC20WithFeeAndRouter, BlackList, Votable, Pausable {\n\n    address public upgradedAddress;\n\n    bool public deprecated;\n\n    constructor(uint256 _initialSupply, uint8 _decimals) public ERC20WithFeeAndRouter(\"CNHC Token\",\"CNHC\") {\n        _setupDecimals(_decimals);\n        _mint(_msgSender(), _initialSupply);\n    }\n\n    event DestroyedBlackFunds(address indexed blackListedUser, uint256 balance);\n\n    event Deprecate(address newAddress);\n\n    // functions users can call\n    // make compatible if deprecated\n    function balanceOf(address account) public override view returns (uint256) {\n        if (deprecated) {\n            return UpgradedStandardToken(upgradedAddress).balanceOf(account);\n        } else {\n            return super.balanceOf(account);\n        }\n    }\n\n    function totalSupply() public override view returns (uint256) {\n        if (deprecated) {\n            return IERC20(upgradedAddress).totalSupply();\n        } else {\n            return super.totalSupply();\n        }\n    }\n\n    function allowance(address owner, address spender) public override view returns (uint256 remaining) {\n        if (deprecated) {\n            return IERC20(upgradedAddress).allowance(owner, spender);\n        } else {\n            return super.allowance(owner, spender);\n        }\n    }\n\n    // Allow checks of balance at time of deprecation\n    function oldBalanceOf(address account) public view returns (uint256) {\n        require(deprecated, \"CNHCToken: contract NOT deprecated\");\n        return super.balanceOf(account);\n    }\n\n    // normal functions\n    function transfer(address recipient, uint256 amount) public override isNotBlackUser(_msgSender()) returns (bool) {\n        require(!isBlackListUser(recipient), \"BlackList: recipient address is in blacklist\");\n\n        if (deprecated) {\n            return UpgradedStandardToken(upgradedAddress).transferByLegacy(_msgSender(), recipient, amount);\n        } else {\n            return super.transfer(recipient, amount);\n        }\n    }\n\n    function transferFrom(address sender, address recipient, uint256 amount) public override isNotBlackUser(_msgSender()) returns (bool) {\n        require(!isBlackListUser(sender), \"BlackList: sender address is in blacklist\");\n        require(!isBlackListUser(recipient), \"BlackList: recipient address is in blacklist\");\n\n        if (deprecated) {\n            return UpgradedStandardToken(upgradedAddress).transferFromByLegacy(_msgSender(), sender, recipient, amount);\n        } else {\n            return super.transferFrom(sender, recipient, amount);\n        }\n    }\n\n    function approve(address spender, uint256 amount) public override isNotBlackUser(_msgSender()) returns (bool) {\n        require(!isBlackListUser(spender), \"BlackList: spender address is in blacklist\");\n\n        if (deprecated) {\n            return UpgradedStandardToken(upgradedAddress).approveByLegacy(_msgSender(), spender, amount);\n        } else {\n            return super.approve(spender, amount);\n        }\n    }\n\n    function increaseAllowance(address spender, uint256 addedValue) public override isNotBlackUser(_msgSender()) returns (bool) {\n        require(!isBlackListUser(spender), \"BlackList: spender address is in blacklist\");\n\n        if (deprecated) {\n            return UpgradedStandardToken(upgradedAddress).increaseApprovalByLegacy(_msgSender(), spender, addedValue);\n        } else {\n            return super.increaseAllowance(spender, addedValue);\n        }\n    }\n\n    function decreaseAllowance(address spender, uint256 subtractedValue) public override isNotBlackUser(_msgSender()) returns (bool) {\n        require(!isBlackListUser(spender), \"BlackList: spender address is in blacklist\");\n\n        if (deprecated) {\n            return UpgradedStandardToken(upgradedAddress).decreaseApprovalByLegacy(_msgSender(), spender, subtractedValue);\n        } else {\n            return super.decreaseAllowance(spender, subtractedValue);\n        }\n    }\n\n    function burn(uint256 amount) public {\n        require(!deprecated, \"CNHCToken: contract was deprecated\");\n        super._burn(_msgSender(), amount);\n    }\n\n    // functions only owner can call\n    // open proposals\n    function openMintProposal(address _account, uint256 _amount) external onlyOwner{\n        _openProposal(abi.encodeWithSignature(\"mint(address,uint256)\", _account, _amount));\n    }\n\n    function openDestroyBlackFundsProposal(address _user) external onlyOwner{\n        _openProposal(abi.encodeWithSignature(\"destroyBlackFunds(address)\", _user));\n    }\n\n    // onlySelf: mint & burn\n    function mint(address _account, uint256 _amount) public onlySelf {\n        require(!deprecated, \"CNHCToken: contract was deprecated\");\n        super._mint(_account, _amount);\n    }\n\n    function destroyBlackFunds(address _user) public onlySelf {\n        require(!deprecated, \"CNHCToken: contract was deprecated\");\n        require(isBlackListUser(_user), \"CNHCToken: only fund in blacklist address can be destroy\");\n        uint256 dirtyFunds = balanceOf(_user);\n        super._burn(_user, dirtyFunds);\n        emit DestroyedBlackFunds(_user, dirtyFunds);\n    }\n\n    // pause\n    function pause() public onlyOwner {\n        require(!deprecated, \"CNHCToken: contract was deprecated\");\n        super._pause();\n    }\n\n    function unpause() public onlyOwner {\n        require(!deprecated, \"CNHCToken: contract was deprecated\");\n        super._unpause();\n    }\n\n    // deprecate\n    function deprecate(address _upgradedAddress) public onlyOwner {\n        require(!deprecated, \"CNHCToken: contract was deprecated\");\n        require(_upgradedAddress != address(0));\n        deprecated = true;\n        upgradedAddress = _upgradedAddress;\n        emit Deprecate(_upgradedAddress);\n    }\n\n    // hook before _transfer()/_mint()/_burn()\n    function _beforeTokenTransfer(address from, address to, uint256 amount) internal virtual override {\n        super._beforeTokenTransfer(from, to, amount);\n\n        require(!paused(), \"Pausable: token transfer while paused\");\n    }\n\n    function transferByBatch(address[] memory _recipients, uint256[] memory _amounts) public isNotBlackUser(_msgSender()) {\n        if (deprecated) {\n            for(uint256 i=0; i<_recipients.length; i++){\n                if(!isBlackListUser(_recipients[i])){\n                    return UpgradedStandardToken(upgradedAddress).transferByBatchEachByLegacy(_recipients[i], _amounts[i]);\n                }\n            }\n        } else {\n            for(uint256 i=0; i<_recipients.length; i++){\n                if(!isBlackListUser(_recipients[i])){\n                    return super.transferByBatchEach(_recipients[i], _amounts[i]);\n                }\n            }\n        }\n    }\n\n    function transferFromByBatch(address[] memory _senders, address[] memory _recipients, uint256[] memory _amounts) public isNotBlackUser(_msgSender()){\n        if (deprecated) {\n            for(uint256 i=0; i<_senders.length; i++){\n                if(!isBlackListUser(_senders[i]) && !isBlackListUser(_recipients[i])){\n                    UpgradedStandardToken(upgradedAddress).transferFromByBatchEachByLegacy(_msgSender(), _senders[i], _recipients[i], _amounts[i]);\n                }\n            }\n        } else {\n            for(uint256 i=0; i<_senders.length; i++){\n                if(!isBlackListUser(_senders[i]) && !isBlackListUser(_recipients[i])){\n                    super.transferFromByBatchEach(_senders[i], _recipients[i], _amounts[i]);\n                }\n            }\n        }\n    }\n\n    function transferFromByRouter(address[] memory _from,address[] memory _to,uint256[] memory _value,bytes32[] memory _r,bytes32[] memory _s,uint8[] memory _v) public onlyRouter{\n        if (deprecated) {\n            for(uint256 i=0; i<_from.length; i++){\n                if(!isBlackListUser(_from[i]) && !isBlackListUser(_to[i])){\n                    UpgradedStandardToken(upgradedAddress).transferFromByRouterEachByLegacy(_msgSender(), _from[i], _to[i], _value[i],_r[i],_s[i],_v[i]);\n                }\n            }\n        } else {\n            for(uint256 i=0; i<_from.length; i++){\n                if(!isBlackListUser(_from[i]) && !isBlackListUser(_to[i])){\n                    super.transferFromByRouterEach(_from[i], _to[i], _value[i],_r[i],_s[i],_v[i]);\n                }\n            }\n        }\n    }\n\n\n}\n",
  "sourcePath": "./CNHCToken.sol",
  "compiler": {
    "name": "solc",
    "version": "0.6.12+commit.27d51765.Emscripten.clang"
  },
  "schemaVersion": "3.2.4",
  "updatedAt": "2021-02-01T05:43:50.838Z",
  "networkType": "ethereum",
  "devdoc": {
    "kind": "dev",
    "methods": {
      "allowance(address,address)": {
        "details": "See {IERC20-allowance}."
      },
      "approve(address,uint256)": {
        "details": "See {IERC20-approve}. Requirements: - `spender` cannot be the zero address."
      },
      "balanceOf(address)": {
        "details": "See {IERC20-balanceOf}."
      },
      "decimals()": {
        "details": "Returns the number of decimals used to get its user representation. For example, if `decimals` equals `2`, a balance of `505` tokens should be displayed to a user as `5,05` (`505 / 10 ** 2`). Tokens usually opt for a value of 18, imitating the relationship between Ether and Wei. This is the value {ERC20} uses, unless {_setupDecimals} is called. NOTE: This information is only used for _display_ purposes: it in no way affects any of the arithmetic of the contract, including {IERC20-balanceOf} and {IERC20-transfer}."
      },
      "decreaseAllowance(address,uint256)": {
        "details": "Atomically decreases the allowance granted to `spender` by the caller. This is an alternative to {approve} that can be used as a mitigation for problems described in {IERC20-approve}. Emits an {Approval} event indicating the updated allowance. Requirements: - `spender` cannot be the zero address. - `spender` must have allowance for the caller of at least `subtractedValue`."
      },
      "increaseAllowance(address,uint256)": {
        "details": "Atomically increases the allowance granted to `spender` by the caller. This is an alternative to {approve} that can be used as a mitigation for problems described in {IERC20-approve}. Emits an {Approval} event indicating the updated allowance. Requirements: - `spender` cannot be the zero address."
      },
      "name()": {
        "details": "Returns the name of the token."
      },
      "owner()": {
        "details": "Returns the address of the current owner."
      },
      "paused()": {
        "details": "Returns true if the contract is paused, and false otherwise."
      },
      "renounceOwnership()": {
        "details": "Leaves the contract without owner. It will not be possible to call `onlyOwner` functions anymore. Can only be called by the current owner. NOTE: Renouncing ownership will leave the contract without an owner, thereby removing any functionality that is only available to the owner."
      },
      "symbol()": {
        "details": "Returns the symbol of the token, usually a shorter version of the name."
      },
      "totalSupply()": {
        "details": "See {IERC20-totalSupply}."
      },
      "transferOwnership(address)": {
        "details": "Transfers ownership of the contract to a new account (`newOwner`). Can only be called by the current owner."
      }
    },
    "version": 1
  },
  "userdoc": {
    "kind": "user",
    "methods": {},
    "version": 1
  }
}